:060000000A128A110E280D
:10000800FE00030EF1000408F2000A08F3000A12C9
:100018008A11F2280A128A11112883133530FD003B
:100028000130FE00F230FF002B3084000A128A11E2
:10003800E3210A128A11F501F601F70183010A1278
:100048008A118F2883120313A501A11F2C282D289C
:100058003428A009A109A00A0319A10AA501A50A23
:10006800A31F372838284128A209A309A20A03197F
:10007800A30A0130F4007408A506A601A701200808
:1000880021040319482849288028A401A40A5728CC
:1000980001300310A00DA10DFF3E031D4D280130B6
:1000A800F4007408A407A11F5A285B284C280130C3
:1000B8000310A60DA70DFF3E031D5C28210823028F
:1000C800031D682820082202031C6B286C2873284B
:1000D8002008A2022108031CA303A302261401304E
:1000E8000310A10CA00CFF3E031D74280130A402CC
:1000F800031D7F2880285B28250803198428852864
:100108008A28A609A709A60A0319A70A2708A10089
:100118002608A00008000A128A11B0210A128A11C2
:10012800643083120313A0000030A1000508A80062
:10013800A9012808A2002908A3000A128A1126206A
:100148000A128A11831203132008AA002A08B5008C
:100158006430A0000030A1000508A800A901280803
:10016800A2002908A3000A128A1155210A128A112D
:10017800831203132008AA002A08F9000A30A000F5
:100188000030A1007908A800A9012808A2002908C0
:10019800A3000A128A1126200A128A118312031355
:1001A8002008AA002A08B6000A30A0000030A100E2
:1001B8007908A800A9012808A2002908A3000A12A2
:1001C8008A1155210A128A11831203132008AA00E2
:1001D8002A08F80094280A128A110E280B1CF52800
:1001E800F6280729831203130618FB28FC28002980
:1001F8000130F000700885078618032904290629AC
:10020800013085020B100B1D0A290B294C293729AF
:10021800F501F601043083120313880078082B3E99
:10022800840083130008870047290130F500003057
:10023800F600023083120313880036082B3E840030
:1002480083130008870047290230F5000030F600C4
:10025800013083120313880035082B3E8400831372
:100268000008870047297608003A03193C294729DE
:100278007508003A03192829013A03190C29033A89
:100288000319192947290B11F6308312031381002A
:1002980073088A0072088400710E8300FE0E7E0EB9
:1002A800090083120313A501A31F5B295C29632995
:1002B800A209A309A20A0319A30AA501A50AA11F55
:1002C800662967296C29A009A109A00A0319A10AAE
:1002D80020082104031971297229A129A401A40A5B
:1002E800802901300310A00DA10DFF3E031D7629C2
:1002F8000130F4007408A407A11F832984297529F3
:1003080021082302031D8A2920082202031C8D29A3
:100318008E2994292008A2022108031CA303A30202
:1003280001300310A10CA00CFF3E031D95290130DC
:10033800A402031DA029A129842925080319A52998
:10034800A629AB29A209A309A20A0319A30A23080B
:10035800A1002208A000080083160317880189015C
:100368008316031385018312031385018316031370
:1003780087018312031387018316031388018312ED
:1003880003138801831603130614861481131514A6
:1003980095148B178B15161496140B1081120112D5
:1003A8008111011581140114F630831203138100A1
:1003B8000B118B1608007E088A007F0882000A123B
:1003C8008A11DF210A128A118000840A04087D0636
:1003D80003190034FF0A0319FE0AE3293F340634DF
:1003E8005B344F3466346D347D3407347F3467347E
:08400000FF3FFF3FFF3FFF3FC0
:04400E00D420FF3F7C
:00000001FF
